{
  "contractName": "Certificado",
  "abi": [
    {
      "anonymous": false,
      "inputs": [
        {
          "indexed": false,
          "internalType": "uint256",
          "name": "id_certificado",
          "type": "uint256"
        },
        {
          "indexed": false,
          "internalType": "string",
          "name": "hash",
          "type": "string"
        },
        {
          "indexed": false,
          "internalType": "uint256",
          "name": "id_estudiante",
          "type": "uint256"
        },
        {
          "indexed": false,
          "internalType": "uint256",
          "name": "id_nft",
          "type": "uint256"
        },
        {
          "indexed": false,
          "internalType": "uint256",
          "name": "id_curso",
          "type": "uint256"
        },
        {
          "indexed": false,
          "internalType": "uint256",
          "name": "fecha_emision",
          "type": "uint256"
        },
        {
          "indexed": false,
          "internalType": "string",
          "name": "firma",
          "type": "string"
        }
      ],
      "name": "CertificadoEmitido",
      "type": "event"
    },
    {
      "inputs": [],
      "name": "certificadoCount",
      "outputs": [
        {
          "internalType": "uint256",
          "name": "",
          "type": "uint256"
        }
      ],
      "stateMutability": "view",
      "type": "function",
      "constant": true
    },
    {
      "inputs": [
        {
          "internalType": "uint256",
          "name": "",
          "type": "uint256"
        }
      ],
      "name": "certificados",
      "outputs": [
        {
          "internalType": "uint256",
          "name": "id_certificado",
          "type": "uint256"
        },
        {
          "internalType": "string",
          "name": "hash",
          "type": "string"
        },
        {
          "internalType": "uint256",
          "name": "id_estudiante",
          "type": "uint256"
        },
        {
          "internalType": "uint256",
          "name": "id_nft",
          "type": "uint256"
        },
        {
          "internalType": "uint256",
          "name": "id_curso",
          "type": "uint256"
        },
        {
          "internalType": "uint256",
          "name": "fecha_emision",
          "type": "uint256"
        },
        {
          "internalType": "string",
          "name": "firma",
          "type": "string"
        }
      ],
      "stateMutability": "view",
      "type": "function",
      "constant": true
    },
    {
      "inputs": [
        {
          "internalType": "string",
          "name": "_hash",
          "type": "string"
        },
        {
          "internalType": "uint256",
          "name": "_id_estudiante",
          "type": "uint256"
        },
        {
          "internalType": "uint256",
          "name": "_id_nft",
          "type": "uint256"
        },
        {
          "internalType": "uint256",
          "name": "_id_curso",
          "type": "uint256"
        },
        {
          "internalType": "uint256",
          "name": "_fecha_emision",
          "type": "uint256"
        },
        {
          "internalType": "string",
          "name": "_firma",
          "type": "string"
        }
      ],
      "name": "emitirCertificado",
      "outputs": [],
      "stateMutability": "nonpayable",
      "type": "function"
    }
  ],
  "bytecode": "0x608060405234801561001057600080fd5b5061088c806100206000396000f3fe608060405234801561001057600080fd5b50600436106100415760003560e01c8063201ba90c146100465780638e59bb4814610062578063a9444b4014610098575b600080fd5b610060600480360381019061005b919061055e565b6100b6565b005b61007c60048036038101906100779190610623565b6101d3565b60405161008f97969594939291906106e7565b60405180910390f35b6100a0610325565b6040516100ad9190610764565b60405180910390f35b600160008154809291906100c9906107ae565b91905055506040518060e00160405280600154815260200187815260200186815260200185815260200184815260200183815260200182815250600080600154815260200190815260200160002060008201518160000155602082015181600101908051906020019061013d92919061032b565b5060408201518160020155606082015181600301556080820151816004015560a0820151816005015560c082015181600601908051906020019061018292919061032b565b509050507fdb1f19ea6b52d8214f6229d65d3484ffa2bd233d10d26bfc53d9bca7a23a56b06001548787878787876040516101c397969594939291906106e7565b60405180910390a1505050505050565b60006020528060005260406000206000915090508060000154908060010180546101fc90610825565b80601f016020809104026020016040519081016040528092919081815260200182805461022890610825565b80156102755780601f1061024a57610100808354040283529160200191610275565b820191906000526020600020905b81548152906001019060200180831161025857829003601f168201915b5050505050908060020154908060030154908060040154908060050154908060060180546102a290610825565b80601f01602080910402602001604051908101604052809291908181526020018280546102ce90610825565b801561031b5780601f106102f05761010080835404028352916020019161031b565b820191906000526020600020905b8154815290600101906020018083116102fe57829003601f168201915b5050505050905087565b60015481565b82805461033790610825565b90600052602060002090601f01602090048101928261035957600085556103a0565b82601f1061037257805160ff19168380011785556103a0565b828001600101855582156103a0579182015b8281111561039f578251825591602001919060010190610384565b5b5090506103ad91906103b1565b5090565b5b808211156103ca5760008160009055506001016103b2565b5090565b6000604051905090565b600080fd5b600080fd5b600080fd5b600080fd5b6000601f19601f8301169050919050565b7f4e487b7100000000000000000000000000000000000000000000000000000000600052604160045260246000fd5b610435826103ec565b810181811067ffffffffffffffff82111715610454576104536103fd565b5b80604052505050565b60006104676103ce565b9050610473828261042c565b919050565b600067ffffffffffffffff821115610493576104926103fd565b5b61049c826103ec565b9050602081019050919050565b82818337600083830152505050565b60006104cb6104c684610478565b61045d565b9050828152602081018484840111156104e7576104e66103e7565b5b6104f28482856104a9565b509392505050565b600082601f83011261050f5761050e6103e2565b5b813561051f8482602086016104b8565b91505092915050565b6000819050919050565b61053b81610528565b811461054657600080fd5b50565b60008135905061055881610532565b92915050565b60008060008060008060c0878903121561057b5761057a6103d8565b5b600087013567ffffffffffffffff811115610599576105986103dd565b5b6105a589828a016104fa565b96505060206105b689828a01610549565b95505060406105c789828a01610549565b94505060606105d889828a01610549565b93505060806105e989828a01610549565b92505060a087013567ffffffffffffffff81111561060a576106096103dd565b5b61061689828a016104fa565b9150509295509295509295565b600060208284031215610639576106386103d8565b5b600061064784828501610549565b91505092915050565b61065981610528565b82525050565b600081519050919050565b600082825260208201905092915050565b60005b8381101561069957808201518184015260208101905061067e565b838111156106a8576000848401525b50505050565b60006106b98261065f565b6106c3818561066a565b93506106d381856020860161067b565b6106dc816103ec565b840191505092915050565b600060e0820190506106fc600083018a610650565b818103602083015261070e81896106ae565b905061071d6040830188610650565b61072a6060830187610650565b6107376080830186610650565b61074460a0830185610650565b81810360c083015261075681846106ae565b905098975050505050505050565b60006020820190506107796000830184610650565b92915050565b7f4e487b7100000000000000000000000000000000000000000000000000000000600052601160045260246000fd5b60006107b982610528565b91507fffffffffffffffffffffffffffffffffffffffffffffffffffffffffffffffff82036107eb576107ea61077f565b5b600182019050919050565b7f4e487b7100000000000000000000000000000000000000000000000000000000600052602260045260246000fd5b6000600282049050600182168061083d57607f821691505b6020821081036108505761084f6107f6565b5b5091905056fea26469706673582212202ebf5e8784080276b615aafa74f2e96c09a005456de38b623264186ad16754f564736f6c634300080d0033",
  "immutableReferences": {},
  "source": "// SPDX-License-Identifier: MIT\r\npragma solidity ^0.8.13;\r\n\r\ncontract Certificado {\r\n    struct CertificadoData {\r\n        uint id_certificado;\r\n        string hash;\r\n        uint id_estudiante;\r\n        uint id_nft;\r\n        uint id_curso;\r\n        uint fecha_emision;\r\n        string firma;\r\n    }\r\n\r\n    mapping(uint => CertificadoData) public certificados;\r\n    uint public certificadoCount;\r\n\r\n    event CertificadoEmitido(\r\n        uint id_certificado,\r\n        string hash,\r\n        uint id_estudiante,\r\n        uint id_nft,\r\n        uint id_curso,\r\n        uint fecha_emision,\r\n        string firma\r\n    );\r\n\r\n    function emitirCertificado(\r\n        string memory _hash,\r\n        uint _id_estudiante,\r\n        uint _id_nft,\r\n        uint _id_curso,\r\n        uint _fecha_emision,\r\n        string memory _firma\r\n    ) public {\r\n        certificadoCount++;\r\n        certificados[certificadoCount] = CertificadoData(\r\n            certificadoCount,\r\n            _hash,\r\n            _id_estudiante,\r\n            _id_nft,\r\n            _id_curso,\r\n            _fecha_emision,\r\n            _firma\r\n        );\r\n\r\n        emit CertificadoEmitido(\r\n            certificadoCount,\r\n            _hash,\r\n            _id_estudiante,\r\n            _id_nft,\r\n            _id_curso,\r\n            _fecha_emision,\r\n            _firma\r\n        );\r\n    }\r\n}\r\n",
  "sourcePath": "C:\\Users\\Franco\\Desktop\\Sistemas\\ether-system\\contracts\\Certificados.sol",
  "compiler": {
    "name": "solc",
    "version": "0.8.13+commit.abaa5c0e.Emscripten.clang"
  },
  "schemaVersion": "3.4.16",
  "updatedAt": "2024-08-03T02:11:35.680Z",
  "networkType": "ethereum",
  "devdoc": {
    "kind": "dev",
    "methods": {},
    "version": 1
  },
  "userdoc": {
    "kind": "user",
    "methods": {},
    "version": 1
  }
}