{
  "contractName": "Certificado",
  "abi": [
    {
      "inputs": [
        {
          "internalType": "uint256",
          "name": "",
          "type": "uint256"
        }
      ],
      "name": "certificados",
      "outputs": [
        {
          "internalType": "uint256",
          "name": "id_estudiante",
          "type": "uint256"
        },
        {
          "internalType": "uint256",
          "name": "id_nft",
          "type": "uint256"
        },
        {
          "internalType": "uint256",
          "name": "id_curso",
          "type": "uint256"
        },
        {
          "internalType": "uint256",
          "name": "fecha_emision",
          "type": "uint256"
        },
        {
          "internalType": "string",
          "name": "firma",
          "type": "string"
        },
        {
          "internalType": "uint256",
          "name": "id_estado",
          "type": "uint256"
        }
      ],
      "stateMutability": "view",
      "type": "function",
      "constant": true
    },
    {
      "inputs": [],
      "name": "nextId",
      "outputs": [
        {
          "internalType": "uint256",
          "name": "",
          "type": "uint256"
        }
      ],
      "stateMutability": "view",
      "type": "function",
      "constant": true
    },
    {
      "inputs": [
        {
          "internalType": "uint256",
          "name": "idEstudiante",
          "type": "uint256"
        },
        {
          "internalType": "uint256",
          "name": "idNft",
          "type": "uint256"
        },
        {
          "internalType": "uint256",
          "name": "idCurso",
          "type": "uint256"
        },
        {
          "internalType": "uint256",
          "name": "fechaEmision",
          "type": "uint256"
        },
        {
          "internalType": "string",
          "name": "firma",
          "type": "string"
        },
        {
          "internalType": "uint256",
          "name": "idEstado",
          "type": "uint256"
        }
      ],
      "name": "emitirCertificado",
      "outputs": [],
      "stateMutability": "nonpayable",
      "type": "function"
    },
    {
      "inputs": [
        {
          "internalType": "uint256",
          "name": "id",
          "type": "uint256"
        }
      ],
      "name": "obtenerCertificado",
      "outputs": [
        {
          "internalType": "uint256",
          "name": "id_estudiante",
          "type": "uint256"
        },
        {
          "internalType": "uint256",
          "name": "id_nft",
          "type": "uint256"
        },
        {
          "internalType": "uint256",
          "name": "id_curso",
          "type": "uint256"
        },
        {
          "internalType": "uint256",
          "name": "fecha_emision",
          "type": "uint256"
        },
        {
          "internalType": "string",
          "name": "firma",
          "type": "string"
        },
        {
          "internalType": "uint256",
          "name": "id_estado",
          "type": "uint256"
        }
      ],
      "stateMutability": "view",
      "type": "function",
      "constant": true
    }
  ],
  "bytecode": "0x608060405234801561001057600080fd5b506108c4806100206000396000f3fe608060405234801561001057600080fd5b506004361061004c5760003560e01c80631a7012d51461005157806350ed5e081461008657806361b8ce8c146100a25780638e59bb48146100c0575b600080fd5b61006b60048036038101906100669190610481565b6100f5565b60405161007d96959493929190610556565b60405180910390f35b6100a0600480360381019061009b91906106f3565b610217565b005b6100aa6102ca565b6040516100b7919061079c565b60405180910390f35b6100da60048036038101906100d59190610481565b6102d0565b6040516100ec96959493929190610556565b60405180910390f35b60008060008060606000806000808981526020019081526020016000206040518060c001604052908160008201548152602001600182015481526020016002820154815260200160038201548152602001600482018054610155906107e6565b80601f0160208091040260200160405190810160405280929190818152602001828054610181906107e6565b80156101ce5780601f106101a3576101008083540402835291602001916101ce565b820191906000526020600020905b8154815290600101906020018083116101b157829003601f168201915b505050505081526020016005820154815250509050806000015181602001518260400151836060015184608001518560a001519650965096509650965096505091939550919395565b6040518060c0016040528087815260200186815260200185815260200184815260200183815260200182815250600080600154815260200190815260200160002060008201518160000155602082015181600101556040820151816002015560608201518160030155608082015181600401908051906020019061029c929190610394565b5060a08201518160050155905050600160008154809291906102bd90610846565b9190505550505050505050565b60015481565b600060205280600052604060002060009150905080600001549080600101549080600201549080600301549080600401805461030b906107e6565b80601f0160208091040260200160405190810160405280929190818152602001828054610337906107e6565b80156103845780601f1061035957610100808354040283529160200191610384565b820191906000526020600020905b81548152906001019060200180831161036757829003601f168201915b5050505050908060050154905086565b8280546103a0906107e6565b90600052602060002090601f0160209004810192826103c25760008555610409565b82601f106103db57805160ff1916838001178555610409565b82800160010185558215610409579182015b828111156104085782518255916020019190600101906103ed565b5b509050610416919061041a565b5090565b5b8082111561043357600081600090555060010161041b565b5090565b6000604051905090565b600080fd5b600080fd5b6000819050919050565b61045e8161044b565b811461046957600080fd5b50565b60008135905061047b81610455565b92915050565b60006020828403121561049757610496610441565b5b60006104a58482850161046c565b91505092915050565b6104b78161044b565b82525050565b600081519050919050565b600082825260208201905092915050565b60005b838110156104f75780820151818401526020810190506104dc565b83811115610506576000848401525b50505050565b6000601f19601f8301169050919050565b6000610528826104bd565b61053281856104c8565b93506105428185602086016104d9565b61054b8161050c565b840191505092915050565b600060c08201905061056b60008301896104ae565b61057860208301886104ae565b61058560408301876104ae565b61059260608301866104ae565b81810360808301526105a4818561051d565b90506105b360a08301846104ae565b979650505050505050565b600080fd5b600080fd5b7f4e487b7100000000000000000000000000000000000000000000000000000000600052604160045260246000fd5b6106008261050c565b810181811067ffffffffffffffff8211171561061f5761061e6105c8565b5b80604052505050565b6000610632610437565b905061063e82826105f7565b919050565b600067ffffffffffffffff82111561065e5761065d6105c8565b5b6106678261050c565b9050602081019050919050565b82818337600083830152505050565b600061069661069184610643565b610628565b9050828152602081018484840111156106b2576106b16105c3565b5b6106bd848285610674565b509392505050565b600082601f8301126106da576106d96105be565b5b81356106ea848260208601610683565b91505092915050565b60008060008060008060c087890312156107105761070f610441565b5b600061071e89828a0161046c565b965050602061072f89828a0161046c565b955050604061074089828a0161046c565b945050606061075189828a0161046c565b935050608087013567ffffffffffffffff81111561077257610771610446565b5b61077e89828a016106c5565b92505060a061078f89828a0161046c565b9150509295509295509295565b60006020820190506107b160008301846104ae565b92915050565b7f4e487b7100000000000000000000000000000000000000000000000000000000600052602260045260246000fd5b600060028204905060018216806107fe57607f821691505b602082108103610811576108106107b7565b5b50919050565b7f4e487b7100000000000000000000000000000000000000000000000000000000600052601160045260246000fd5b60006108518261044b565b91507fffffffffffffffffffffffffffffffffffffffffffffffffffffffffffffffff820361088357610882610817565b5b60018201905091905056fea26469706673582212208a03b028ab684990ec5a06b1b2ad1cc1f69c8619d16ca8b9d63988ee7fe6792664736f6c634300080d0033",
  "immutableReferences": {},
  "source": "// SPDX-License-Identifier: MIT\r\npragma solidity ^0.8.13;\r\n\r\ncontract Certificado {\r\n    struct CertificadoData {\r\n        uint id_estudiante;\r\n        uint id_nft;\r\n        uint id_curso;\r\n        uint fecha_emision;\r\n        string firma;\r\n        uint id_estado;\r\n    }\r\n\r\n    mapping(uint => CertificadoData) public certificados;\r\n    uint public nextId;\r\n\r\n    function emitirCertificado(\r\n        uint idEstudiante,\r\n        uint idNft,\r\n        uint idCurso,\r\n        uint fechaEmision,\r\n        string memory firma,  // Debe ser string si ests enviando un hash como string\r\n        uint idEstado\r\n    ) public {\r\n        certificados[nextId] = CertificadoData(\r\n            idEstudiante, idNft, idCurso, fechaEmision, firma, idEstado\r\n        );\r\n        nextId++;\r\n    }\r\n\r\n    function obtenerCertificado(uint id) public view returns (\r\n        uint id_estudiante,\r\n        uint id_nft,\r\n        uint id_curso,\r\n        uint fecha_emision,\r\n        string memory firma,\r\n        uint id_estado\r\n    ) {\r\n        CertificadoData memory c = certificados[id];\r\n        return (\r\n            c.id_estudiante, c.id_nft, c.id_curso, c.fecha_emision,\r\n            c.firma, c.id_estado\r\n        );\r\n    }\r\n}\r\n",
  "sourcePath": "C:\\Users\\Franco\\Desktop\\Sistemas\\ether-system\\contracts\\Certificados.sol",
  "compiler": {
    "name": "solc",
    "version": "0.8.13+commit.abaa5c0e.Emscripten.clang"
  },
  "schemaVersion": "3.4.16",
  "updatedAt": "2024-08-03T14:49:42.526Z",
  "networkType": "ethereum",
  "devdoc": {
    "kind": "dev",
    "methods": {},
    "version": 1
  },
  "userdoc": {
    "kind": "user",
    "methods": {},
    "version": 1
  }
}