{
  "contractName": "Estado",
  "abi": [
    {
      "anonymous": false,
      "inputs": [
        {
          "indexed": false,
          "internalType": "uint256",
          "name": "id_estado",
          "type": "uint256"
        },
        {
          "indexed": false,
          "internalType": "string",
          "name": "nombre",
          "type": "string"
        }
      ],
      "name": "EstadoAdded",
      "type": "event"
    },
    {
      "inputs": [],
      "name": "estadoCount",
      "outputs": [
        {
          "internalType": "uint256",
          "name": "",
          "type": "uint256"
        }
      ],
      "stateMutability": "view",
      "type": "function",
      "constant": true
    },
    {
      "inputs": [
        {
          "internalType": "string",
          "name": "_nombre",
          "type": "string"
        }
      ],
      "name": "addEstado",
      "outputs": [
        {
          "internalType": "uint256",
          "name": "",
          "type": "uint256"
        }
      ],
      "stateMutability": "nonpayable",
      "type": "function"
    },
    {
      "inputs": [
        {
          "internalType": "uint256",
          "name": "_estadoId",
          "type": "uint256"
        }
      ],
      "name": "getState",
      "outputs": [
        {
          "internalType": "uint256",
          "name": "id_estado",
          "type": "uint256"
        },
        {
          "internalType": "string",
          "name": "nombre",
          "type": "string"
        }
      ],
      "stateMutability": "view",
      "type": "function",
      "constant": true
    },
    {
      "inputs": [],
      "name": "getTotalStates",
      "outputs": [
        {
          "internalType": "uint256",
          "name": "count",
          "type": "uint256"
        }
      ],
      "stateMutability": "view",
      "type": "function",
      "constant": true
    }
  ],
  "bytecode": "0x608060405234801561001057600080fd5b5061071f806100206000396000f3fe608060405234801561001057600080fd5b506004361061004c5760003560e01c8063285fb1011461005157806344c9af281461006f578063ea7b20a1146100a0578063ec1acfcf146100d0575b600080fd5b6100596100ee565b6040516100669190610343565b60405180910390f35b6100896004803603810190610084919061039e565b6100f4565b604051610097929190610464565b60405180910390f35b6100ba60048036038101906100b591906105c9565b6101c9565b6040516100c79190610343565b60405180910390f35b6100d861027d565b6040516100e59190610343565b60405180910390f35b60015481565b6000606060008060008581526020019081526020016000206040518060400160405290816000820154815260200160018201805461013190610641565b80601f016020809104026020016040519081016040528092919081815260200182805461015d90610641565b80156101aa5780601f1061017f576101008083540402835291602001916101aa565b820191906000526020600020905b81548152906001019060200180831161018d57829003601f168201915b5050505050815250509050806000015181602001519250925050915091565b6000600160008154809291906101de906106a1565b919050555060405180604001604052806001548152602001838152506000806001548152602001908152602001600020600082015181600001556020820151816001019080519060200190610234929190610287565b509050507f6f2e78863aebfeb0532fca4653c827252362dd726af8c12d6051e563c7e4659a6001548360405161026b929190610464565b60405180910390a16001549050919050565b6000600154905090565b82805461029390610641565b90600052602060002090601f0160209004810192826102b557600085556102fc565b82601f106102ce57805160ff19168380011785556102fc565b828001600101855582156102fc579182015b828111156102fb5782518255916020019190600101906102e0565b5b509050610309919061030d565b5090565b5b8082111561032657600081600090555060010161030e565b5090565b6000819050919050565b61033d8161032a565b82525050565b60006020820190506103586000830184610334565b92915050565b6000604051905090565b600080fd5b600080fd5b61037b8161032a565b811461038657600080fd5b50565b60008135905061039881610372565b92915050565b6000602082840312156103b4576103b3610368565b5b60006103c284828501610389565b91505092915050565b600081519050919050565b600082825260208201905092915050565b60005b838110156104055780820151818401526020810190506103ea565b83811115610414576000848401525b50505050565b6000601f19601f8301169050919050565b6000610436826103cb565b61044081856103d6565b93506104508185602086016103e7565b6104598161041a565b840191505092915050565b60006040820190506104796000830185610334565b818103602083015261048b818461042b565b90509392505050565b600080fd5b600080fd5b7f4e487b7100000000000000000000000000000000000000000000000000000000600052604160045260246000fd5b6104d68261041a565b810181811067ffffffffffffffff821117156104f5576104f461049e565b5b80604052505050565b600061050861035e565b905061051482826104cd565b919050565b600067ffffffffffffffff8211156105345761053361049e565b5b61053d8261041a565b9050602081019050919050565b82818337600083830152505050565b600061056c61056784610519565b6104fe565b90508281526020810184848401111561058857610587610499565b5b61059384828561054a565b509392505050565b600082601f8301126105b0576105af610494565b5b81356105c0848260208601610559565b91505092915050565b6000602082840312156105df576105de610368565b5b600082013567ffffffffffffffff8111156105fd576105fc61036d565b5b6106098482850161059b565b91505092915050565b7f4e487b7100000000000000000000000000000000000000000000000000000000600052602260045260246000fd5b6000600282049050600182168061065957607f821691505b60208210810361066c5761066b610612565b5b50919050565b7f4e487b7100000000000000000000000000000000000000000000000000000000600052601160045260246000fd5b60006106ac8261032a565b91507fffffffffffffffffffffffffffffffffffffffffffffffffffffffffffffffff82036106de576106dd610672565b5b60018201905091905056fea26469706673582212203b794befb03caeb90a94bfa1ca218fdc8e509783b4563a71d01c3ece5630945464736f6c634300080d0033",
  "immutableReferences": {},
  "source": "// SPDX-License-Identifier: MIT\r\npragma solidity ^0.8.13;\r\n\r\n/// @title Contrato de Gestin de Estados\r\n/// @dev Un contrato para gestionar la informacin de estados\r\n\r\ncontract Estado {\r\n    struct EstadoInfo {\r\n        uint id_estado;      // ID nico del estado\r\n        string nombre;       // Nombre del estado\r\n    }\r\n\r\n    mapping(uint => EstadoInfo) private estados;\r\n    uint public estadoCount;\r\n\r\n    event EstadoAdded(uint id_estado, string nombre);\r\n\r\n    /// @notice Agregar un nuevo estado\r\n    /// @param _nombre Nombre del estado\r\n    /// @return id_estado ID del estado registrado\r\n    function addEstado(string memory _nombre) public returns (uint) {\r\n        estadoCount++;\r\n        estados[estadoCount] = EstadoInfo(estadoCount, _nombre);\r\n        emit EstadoAdded(estadoCount, _nombre);\r\n        return estadoCount;\r\n    }\r\n\r\n    /// @notice Obtener informacin de un estado\r\n    /// @param _estadoId ID del estado\r\n    /// @return id_estado ID del estado\r\n    /// @return nombre Nombre del estado\r\n    function getState(uint _estadoId) public view returns (uint id_estado, string memory nombre) {\r\n        EstadoInfo memory estadoInfo = estados[_estadoId];\r\n        return (estadoInfo.id_estado, estadoInfo.nombre);\r\n    }\r\n\r\n    /// @notice Obtener el nmero total de estados registrados\r\n    /// @return count Nmero total de estados\r\n    function getTotalStates() public view returns (uint count) {\r\n        return estadoCount;\r\n    }\r\n}\r\n",
  "sourcePath": "C:\\Users\\Franco\\Desktop\\Sistemas\\ether-system\\contracts\\Estado.sol",
  "compiler": {
    "name": "solc",
    "version": "0.8.13+commit.abaa5c0e.Emscripten.clang"
  },
  "schemaVersion": "3.4.16",
  "updatedAt": "2024-07-30T17:10:45.087Z",
  "networkType": "ethereum",
  "devdoc": {
    "details": "Un contrato para gestionar la informacin de estados",
    "kind": "dev",
    "methods": {
      "addEstado(string)": {
        "params": {
          "_nombre": "Nombre del estado"
        },
        "returns": {
          "_0": "id_estado ID del estado registrado"
        }
      },
      "getState(uint256)": {
        "params": {
          "_estadoId": "ID del estado"
        },
        "returns": {
          "id_estado": "ID del estado",
          "nombre": "Nombre del estado"
        }
      },
      "getTotalStates()": {
        "returns": {
          "count": "Nmero total de estados"
        }
      }
    },
    "title": "Contrato de Gestin de Estados",
    "version": 1
  },
  "userdoc": {
    "kind": "user",
    "methods": {
      "addEstado(string)": {
        "notice": "Agregar un nuevo estado"
      },
      "getState(uint256)": {
        "notice": "Obtener informacin de un estado"
      },
      "getTotalStates()": {
        "notice": "Obtener el nmero total de estados registrados"
      }
    },
    "version": 1
  }
}