{
  "contractName": "Estudiante",
  "abi": [
    {
      "anonymous": false,
      "inputs": [
        {
          "indexed": false,
          "internalType": "uint256",
          "name": "id_estado",
          "type": "uint256"
        },
        {
          "indexed": false,
          "internalType": "string",
          "name": "nombre",
          "type": "string"
        }
      ],
      "name": "EstadoAdded",
      "type": "event"
    },
    {
      "anonymous": false,
      "inputs": [
        {
          "indexed": false,
          "internalType": "uint256",
          "name": "id_estudiante",
          "type": "uint256"
        },
        {
          "indexed": false,
          "internalType": "string",
          "name": "nombre",
          "type": "string"
        },
        {
          "indexed": false,
          "internalType": "string",
          "name": "apellido",
          "type": "string"
        },
        {
          "indexed": false,
          "internalType": "uint256",
          "name": "id_estado",
          "type": "uint256"
        }
      ],
      "name": "EstudianteRegistrado",
      "type": "event"
    },
    {
      "anonymous": false,
      "inputs": [
        {
          "indexed": false,
          "internalType": "uint256",
          "name": "id_estudiante",
          "type": "uint256"
        },
        {
          "indexed": false,
          "internalType": "string",
          "name": "nuevoNombre",
          "type": "string"
        },
        {
          "indexed": false,
          "internalType": "string",
          "name": "nuevoApellido",
          "type": "string"
        }
      ],
      "name": "InformacionActualizada",
      "type": "event"
    },
    {
      "inputs": [
        {
          "internalType": "string",
          "name": "_nombre",
          "type": "string"
        }
      ],
      "name": "addEstado",
      "outputs": [
        {
          "internalType": "uint256",
          "name": "",
          "type": "uint256"
        }
      ],
      "stateMutability": "nonpayable",
      "type": "function"
    },
    {
      "inputs": [],
      "name": "estadoCount",
      "outputs": [
        {
          "internalType": "uint256",
          "name": "",
          "type": "uint256"
        }
      ],
      "stateMutability": "view",
      "type": "function",
      "constant": true
    },
    {
      "inputs": [
        {
          "internalType": "uint256",
          "name": "_estadoId",
          "type": "uint256"
        }
      ],
      "name": "getState",
      "outputs": [
        {
          "internalType": "uint256",
          "name": "id_estado",
          "type": "uint256"
        },
        {
          "internalType": "string",
          "name": "nombre",
          "type": "string"
        }
      ],
      "stateMutability": "view",
      "type": "function",
      "constant": true
    },
    {
      "inputs": [],
      "name": "getTotalStates",
      "outputs": [
        {
          "internalType": "uint256",
          "name": "count",
          "type": "uint256"
        }
      ],
      "stateMutability": "view",
      "type": "function",
      "constant": true
    },
    {
      "inputs": [
        {
          "internalType": "string",
          "name": "_nombre",
          "type": "string"
        },
        {
          "internalType": "string",
          "name": "_apellido",
          "type": "string"
        },
        {
          "internalType": "string",
          "name": "_email",
          "type": "string"
        },
        {
          "internalType": "uint256",
          "name": "_fecha_nacimiento",
          "type": "uint256"
        },
        {
          "internalType": "uint256",
          "name": "_id_estado",
          "type": "uint256"
        }
      ],
      "name": "registrarEstudiante",
      "outputs": [
        {
          "internalType": "uint256",
          "name": "",
          "type": "uint256"
        }
      ],
      "stateMutability": "nonpayable",
      "type": "function"
    },
    {
      "inputs": [
        {
          "internalType": "uint256",
          "name": "_id_estudiante",
          "type": "uint256"
        }
      ],
      "name": "obtenerEstudiante",
      "outputs": [
        {
          "internalType": "uint256",
          "name": "id_estudiante",
          "type": "uint256"
        },
        {
          "internalType": "string",
          "name": "nombre",
          "type": "string"
        },
        {
          "internalType": "string",
          "name": "apellido",
          "type": "string"
        },
        {
          "internalType": "string",
          "name": "email",
          "type": "string"
        },
        {
          "internalType": "uint256",
          "name": "fecha_nacimiento",
          "type": "uint256"
        },
        {
          "internalType": "uint256",
          "name": "id_estado",
          "type": "uint256"
        }
      ],
      "stateMutability": "view",
      "type": "function",
      "constant": true
    },
    {
      "inputs": [
        {
          "internalType": "uint256",
          "name": "_id_estudiante",
          "type": "uint256"
        },
        {
          "internalType": "string",
          "name": "_nuevoNombre",
          "type": "string"
        },
        {
          "internalType": "string",
          "name": "_nuevoApellido",
          "type": "string"
        }
      ],
      "name": "actualizarInformacion",
      "outputs": [],
      "stateMutability": "nonpayable",
      "type": "function"
    },
    {
      "inputs": [
        {
          "internalType": "uint256",
          "name": "_id_estudiante",
          "type": "uint256"
        },
        {
          "internalType": "uint256",
          "name": "_nuevoIdEstado",
          "type": "uint256"
        }
      ],
      "name": "cambiarEstadoEstudiante",
      "outputs": [],
      "stateMutability": "nonpayable",
      "type": "function"
    },
    {
      "inputs": [],
      "name": "obtenerTotalEstudiantes",
      "outputs": [
        {
          "internalType": "uint256",
          "name": "contador",
          "type": "uint256"
        }
      ],
      "stateMutability": "view",
      "type": "function",
      "constant": true
    }
  ],
  "bytecode": "0x608060405234801561001057600080fd5b50610fe0806100206000396000f3fe608060405234801561001057600080fd5b50600436106100935760003560e01c80633e7faf8b116100665780633e7faf8b1461013757806344c9af2814610153578063b017f29614610184578063ea7b20a1146101a2578063ec1acfcf146101d257610093565b806309fc78b61461009857806315a31332146100cd5780631cbe5ba1146100fd578063285fb10114610119575b600080fd5b6100b260048036038101906100ad9190610921565b6101f0565b6040516100c4969594939291906109f6565b60405180910390f35b6100e760048036038101906100e29190610ba1565b610424565b6040516100f49190610c70565b60405180910390f35b61011760048036038101906101129190610c8b565b610597565b005b610121610621565b60405161012e9190610c70565b60405180910390f35b610151600480360381019061014c9190610d16565b610627565b005b61016d60048036038101906101689190610921565b610697565b60405161017b929190610d56565b60405180910390f35b61018c61076c565b6040516101999190610c70565b60405180910390f35b6101bc60048036038101906101b79190610d86565b610776565b6040516101c99190610c70565b60405180910390f35b6101da61082a565b6040516101e79190610c70565b60405180910390f35b600060608060606000806000600260008981526020019081526020016000206040518060c00160405290816000820154815260200160018201805461023490610dfe565b80601f016020809104026020016040519081016040528092919081815260200182805461026090610dfe565b80156102ad5780601f10610282576101008083540402835291602001916102ad565b820191906000526020600020905b81548152906001019060200180831161029057829003601f168201915b505050505081526020016002820180546102c690610dfe565b80601f01602080910402602001604051908101604052809291908181526020018280546102f290610dfe565b801561033f5780601f106103145761010080835404028352916020019161033f565b820191906000526020600020905b81548152906001019060200180831161032257829003601f168201915b5050505050815260200160038201805461035890610dfe565b80601f016020809104026020016040519081016040528092919081815260200182805461038490610dfe565b80156103d15780601f106103a6576101008083540402835291602001916103d1565b820191906000526020600020905b8154815290600101906020018083116103b457829003601f168201915b50505050508152602001600482015481526020016005820154815250509050806000015181602001518260400151836060015184608001518560a001519650965096509650965096505091939550919395565b6000808211801561043757506001548211155b610476576040517f08c379a000000000000000000000000000000000000000000000000000000000815260040161046d90610e7b565b60405180910390fd5b6003600081548092919061048990610eca565b91905055506040518060c001604052806003548152602001878152602001868152602001858152602001848152602001838152506002600060035481526020019081526020016000206000820151816000015560208201518160010190805190602001906104f8929190610834565b506040820151816002019080519060200190610515929190610834565b506060820151816003019080519060200190610532929190610834565b506080820151816004015560a082015181600501559050507f5f1606b23c86bc6eb5d783ce333221c83279b0e5301fb5589fb74bd0c55ee6a86003548787856040516105819493929190610f12565b60405180910390a1600354905095945050505050565b6000600260008581526020019081526020016000209050828160010190805190602001906105c6929190610834565b50818160020190805190602001906105df929190610834565b507f4e39bab54a0ba4822d75c1e0fd64f09a73bee60f0d053141cf4de35cf91279d284848460405161061393929190610f65565b60405180910390a150505050565b60015481565b60008111801561063957506001548111155b610678576040517f08c379a000000000000000000000000000000000000000000000000000000000815260040161066f90610e7b565b60405180910390fd5b8060026000848152602001908152602001600020600501819055505050565b600060606000806000858152602001908152602001600020604051806040016040529081600082015481526020016001820180546106d490610dfe565b80601f016020809104026020016040519081016040528092919081815260200182805461070090610dfe565b801561074d5780601f106107225761010080835404028352916020019161074d565b820191906000526020600020905b81548152906001019060200180831161073057829003601f168201915b5050505050815250509050806000015181602001519250925050915091565b6000600354905090565b60006001600081548092919061078b90610eca565b9190505550604051806040016040528060015481526020018381525060008060015481526020019081526020016000206000820151816000015560208201518160010190805190602001906107e1929190610834565b509050507f6f2e78863aebfeb0532fca4653c827252362dd726af8c12d6051e563c7e4659a60015483604051610818929190610d56565b60405180910390a16001549050919050565b6000600154905090565b82805461084090610dfe565b90600052602060002090601f01602090048101928261086257600085556108a9565b82601f1061087b57805160ff19168380011785556108a9565b828001600101855582156108a9579182015b828111156108a857825182559160200191906001019061088d565b5b5090506108b691906108ba565b5090565b5b808211156108d35760008160009055506001016108bb565b5090565b6000604051905090565b600080fd5b600080fd5b6000819050919050565b6108fe816108eb565b811461090957600080fd5b50565b60008135905061091b816108f5565b92915050565b600060208284031215610937576109366108e1565b5b60006109458482850161090c565b91505092915050565b610957816108eb565b82525050565b600081519050919050565b600082825260208201905092915050565b60005b8381101561099757808201518184015260208101905061097c565b838111156109a6576000848401525b50505050565b6000601f19601f8301169050919050565b60006109c88261095d565b6109d28185610968565b93506109e2818560208601610979565b6109eb816109ac565b840191505092915050565b600060c082019050610a0b600083018961094e565b8181036020830152610a1d81886109bd565b90508181036040830152610a3181876109bd565b90508181036060830152610a4581866109bd565b9050610a54608083018561094e565b610a6160a083018461094e565b979650505050505050565b600080fd5b600080fd5b7f4e487b7100000000000000000000000000000000000000000000000000000000600052604160045260246000fd5b610aae826109ac565b810181811067ffffffffffffffff82111715610acd57610acc610a76565b5b80604052505050565b6000610ae06108d7565b9050610aec8282610aa5565b919050565b600067ffffffffffffffff821115610b0c57610b0b610a76565b5b610b15826109ac565b9050602081019050919050565b82818337600083830152505050565b6000610b44610b3f84610af1565b610ad6565b905082815260208101848484011115610b6057610b5f610a71565b5b610b6b848285610b22565b509392505050565b600082601f830112610b8857610b87610a6c565b5b8135610b98848260208601610b31565b91505092915050565b600080600080600060a08688031215610bbd57610bbc6108e1565b5b600086013567ffffffffffffffff811115610bdb57610bda6108e6565b5b610be788828901610b73565b955050602086013567ffffffffffffffff811115610c0857610c076108e6565b5b610c1488828901610b73565b945050604086013567ffffffffffffffff811115610c3557610c346108e6565b5b610c4188828901610b73565b9350506060610c528882890161090c565b9250506080610c638882890161090c565b9150509295509295909350565b6000602082019050610c85600083018461094e565b92915050565b600080600060608486031215610ca457610ca36108e1565b5b6000610cb28682870161090c565b935050602084013567ffffffffffffffff811115610cd357610cd26108e6565b5b610cdf86828701610b73565b925050604084013567ffffffffffffffff811115610d0057610cff6108e6565b5b610d0c86828701610b73565b9150509250925092565b60008060408385031215610d2d57610d2c6108e1565b5b6000610d3b8582860161090c565b9250506020610d4c8582860161090c565b9150509250929050565b6000604082019050610d6b600083018561094e565b8181036020830152610d7d81846109bd565b90509392505050565b600060208284031215610d9c57610d9b6108e1565b5b600082013567ffffffffffffffff811115610dba57610db96108e6565b5b610dc684828501610b73565b91505092915050565b7f4e487b7100000000000000000000000000000000000000000000000000000000600052602260045260246000fd5b60006002820490506001821680610e1657607f821691505b602082108103610e2957610e28610dcf565b5b50919050565b7f45737461646f206e6f2076616c69646f00000000000000000000000000000000600082015250565b6000610e65601083610968565b9150610e7082610e2f565b602082019050919050565b60006020820190508181036000830152610e9481610e58565b9050919050565b7f4e487b7100000000000000000000000000000000000000000000000000000000600052601160045260246000fd5b6000610ed5826108eb565b91507fffffffffffffffffffffffffffffffffffffffffffffffffffffffffffffffff8203610f0757610f06610e9b565b5b600182019050919050565b6000608082019050610f27600083018761094e565b8181036020830152610f3981866109bd565b90508181036040830152610f4d81856109bd565b9050610f5c606083018461094e565b95945050505050565b6000606082019050610f7a600083018661094e565b8181036020830152610f8c81856109bd565b90508181036040830152610fa081846109bd565b905094935050505056fea26469706673582212207393d116a546e5fa47a87957ae87fc36f00ab7eb3a8ebaa70b9f0d3dec9889b964736f6c634300080d0033",
  "immutableReferences": {},
  "source": "// SPDX-License-Identifier: MIT\r\npragma solidity ^0.8.13;\r\n\r\n/// @title Contrato de Gestin de Estudiantes\r\n/// @dev Un contrato para gestionar la informacin de estudiantes\r\n\r\nimport \"./Estado.sol\";\r\n\r\ncontract Estudiante is Estado {\r\n\r\n   \r\n    struct InfoEstudiante {\r\n        uint id_estudiante;   \r\n        string nombre;        \r\n        string apellido;      \r\n        string email;         \r\n        uint fecha_nacimiento;\r\n        uint id_estado;       \r\n    }\r\n\r\n    // Mapeo para almacenar estudiantes por su ID\r\n    mapping(uint => InfoEstudiante) private estudiantes;\r\n\r\n    // Nmero total de estudiantes registrados\r\n    uint private contadorEstudiantes;\r\n\r\n    // Evento que se emite cuando se registra un nuevo estudiante\r\n    event EstudianteRegistrado(uint id_estudiante, string nombre, string apellido, uint id_estado);\r\n\r\n    // Evento que se emite cuando se actualiza la informacin de un estudiante\r\n    event InformacionActualizada(uint id_estudiante, string nuevoNombre, string nuevoApellido);\r\n\r\n    /// @notice Registrar un nuevo estudiante\r\n    /// @param _nombre Nombre del estudiante\r\n    /// @param _apellido Apellido del estudiante\r\n    /// @param _email Email del estudiante\r\n    /// @param _fecha_nacimiento Fecha de nacimiento del estudiante (timestamp)\r\n    /// @param _id_estado ID del estado inicial del estudiante\r\n    /// @return id_estudiante ID del estudiante registrado\r\n    function registrarEstudiante(\r\n        string memory _nombre,\r\n        string memory _apellido,\r\n        string memory _email,\r\n        uint _fecha_nacimiento,\r\n        uint _id_estado\r\n    ) public returns (uint) {\r\n        require(_id_estado > 0 && _id_estado <= Estado.estadoCount, \"Estado no valido\"); // Verifica que el estado es vlido\r\n\r\n        contadorEstudiantes++; // Incrementa el contador de estudiantes\r\n        estudiantes[contadorEstudiantes] = InfoEstudiante(\r\n            contadorEstudiantes,\r\n            _nombre,\r\n            _apellido,\r\n            _email,\r\n            _fecha_nacimiento,\r\n            _id_estado\r\n        ); // Almacena el nuevo estudiante\r\n\r\n        emit EstudianteRegistrado(contadorEstudiantes, _nombre, _apellido, _id_estado); // Emite el evento de registro\r\n        return contadorEstudiantes; // Devuelve el ID del estudiante\r\n    }\r\n\r\n    /// @notice Obtener informacin de un estudiante\r\n    /// @param _id_estudiante ID del estudiante\r\n    /// @return id_estudiante ID del estudiante\r\n    /// @return nombre Nombre del estudiante\r\n    /// @return apellido Apellido del estudiante\r\n    /// @return email Email del estudiante\r\n    /// @return fecha_nacimiento Fecha de nacimiento del estudiante\r\n    /// @return id_estado ID del estado del estudiante\r\n    function obtenerEstudiante(uint _id_estudiante) public view returns (\r\n            uint id_estudiante,\r\n            string memory nombre,\r\n            string memory apellido,\r\n            string memory email,\r\n            uint fecha_nacimiento,\r\n            uint id_estado\r\n        )\r\n    {\r\n        InfoEstudiante memory infoEstudiante = estudiantes[_id_estudiante]; // Obtiene el estudiante por su ID\r\n        return (\r\n            infoEstudiante.id_estudiante,\r\n            infoEstudiante.nombre,\r\n            infoEstudiante.apellido,\r\n            infoEstudiante.email,\r\n            infoEstudiante.fecha_nacimiento,\r\n            infoEstudiante.id_estado\r\n        ); // Devuelve la informacin del estudiante\r\n    }\r\n\r\n    /// @notice Actualizar la informacin de un estudiante\r\n    /// @param _id_estudiante ID del estudiante\r\n    /// @param _nuevoNombre Nuevo nombre del estudiante\r\n    /// @param _nuevoApellido Nuevo apellido del estudiante\r\n    function actualizarInformacion(\r\n        uint _id_estudiante,\r\n        string memory _nuevoNombre,\r\n        string memory _nuevoApellido\r\n    ) public {\r\n        InfoEstudiante storage estudiante = estudiantes[_id_estudiante]; // Accede al estudiante por referencia\r\n        estudiante.nombre = _nuevoNombre; // Actualiza el nombre del estudiante\r\n        estudiante.apellido = _nuevoApellido; // Actualiza el apellido del estudiante\r\n\r\n        emit InformacionActualizada(_id_estudiante, _nuevoNombre, _nuevoApellido); // Emite el evento de actualizacin\r\n    }\r\n\r\n    /// @notice Cambiar el estado de un estudiante\r\n    /// @param _id_estudiante ID del estudiante\r\n    /// @param _nuevoIdEstado Nuevo estado del estudiante\r\n    function cambiarEstadoEstudiante(uint _id_estudiante, uint _nuevoIdEstado) public {\r\n        require(_nuevoIdEstado > 0 && _nuevoIdEstado <= Estado.estadoCount, \"Estado no valido\");\r\n        estudiantes[_id_estudiante].id_estado = _nuevoIdEstado; // Cambia el estado del estudiante\r\n    }\r\n\r\n    /// @notice Obtener el nmero total de estudiantes registrados\r\n    /// @return contador Nmero total de estudiantes\r\n    function obtenerTotalEstudiantes() public view returns (uint contador) {\r\n        return contadorEstudiantes; // Devuelve el contador de estudiantes\r\n    }\r\n}\r\n",
  "sourcePath": "C:\\Users\\Franco\\Desktop\\Sistemas\\ether-system\\contracts\\Estudiante.sol",
  "compiler": {
    "name": "solc",
    "version": "0.8.13+commit.abaa5c0e.Emscripten.clang"
  },
  "schemaVersion": "3.4.16",
  "updatedAt": "2024-07-30T17:10:45.366Z",
  "networkType": "ethereum",
  "devdoc": {
    "kind": "dev",
    "methods": {
      "actualizarInformacion(uint256,string,string)": {
        "params": {
          "_id_estudiante": "ID del estudiante",
          "_nuevoApellido": "Nuevo apellido del estudiante",
          "_nuevoNombre": "Nuevo nombre del estudiante"
        }
      },
      "addEstado(string)": {
        "params": {
          "_nombre": "Nombre del estado"
        },
        "returns": {
          "_0": "id_estado ID del estado registrado"
        }
      },
      "cambiarEstadoEstudiante(uint256,uint256)": {
        "params": {
          "_id_estudiante": "ID del estudiante",
          "_nuevoIdEstado": "Nuevo estado del estudiante"
        }
      },
      "getState(uint256)": {
        "params": {
          "_estadoId": "ID del estado"
        },
        "returns": {
          "id_estado": "ID del estado",
          "nombre": "Nombre del estado"
        }
      },
      "getTotalStates()": {
        "returns": {
          "count": "Nmero total de estados"
        }
      },
      "obtenerEstudiante(uint256)": {
        "params": {
          "_id_estudiante": "ID del estudiante"
        },
        "returns": {
          "apellido": "Apellido del estudiante",
          "email": "Email del estudiante",
          "fecha_nacimiento": "Fecha de nacimiento del estudiante",
          "id_estado": "ID del estado del estudiante",
          "id_estudiante": "ID del estudiante",
          "nombre": "Nombre del estudiante"
        }
      },
      "obtenerTotalEstudiantes()": {
        "returns": {
          "contador": "Nmero total de estudiantes"
        }
      },
      "registrarEstudiante(string,string,string,uint256,uint256)": {
        "params": {
          "_apellido": "Apellido del estudiante",
          "_email": "Email del estudiante",
          "_fecha_nacimiento": "Fecha de nacimiento del estudiante (timestamp)",
          "_id_estado": "ID del estado inicial del estudiante",
          "_nombre": "Nombre del estudiante"
        },
        "returns": {
          "_0": "id_estudiante ID del estudiante registrado"
        }
      }
    },
    "version": 1
  },
  "userdoc": {
    "kind": "user",
    "methods": {
      "actualizarInformacion(uint256,string,string)": {
        "notice": "Actualizar la informacin de un estudiante"
      },
      "addEstado(string)": {
        "notice": "Agregar un nuevo estado"
      },
      "cambiarEstadoEstudiante(uint256,uint256)": {
        "notice": "Cambiar el estado de un estudiante"
      },
      "getState(uint256)": {
        "notice": "Obtener informacin de un estado"
      },
      "getTotalStates()": {
        "notice": "Obtener el nmero total de estados registrados"
      },
      "obtenerEstudiante(uint256)": {
        "notice": "Obtener informacin de un estudiante"
      },
      "obtenerTotalEstudiantes()": {
        "notice": "Obtener el nmero total de estudiantes registrados"
      },
      "registrarEstudiante(string,string,string,uint256,uint256)": {
        "notice": "Registrar un nuevo estudiante"
      }
    },
    "version": 1
  }
}